:1000000002067D008F828E83E0540100000070F8AC
:100010002278FFE4F6D8FD0206DBBB010689828A5E
:1000200083E0225002E722BBFE02E32289828A8318
:10003000E49322BB010689828A83F0225002F722D0
:10004000BBFE01F322C5F0F8A3E028F0C5F0F8E507
:1000500082158270021583E038F022EF2BFFEE3A12
:10006000FEED39FDEC38FC22E88FF0A4CC8BF0A437
:100070002CFCE98EF0A42CFC8AF0EDA42CFCEA8E7A
:10008000F0A4CDA8F08BF0A42DCC3825F0FDE98F9D
:10009000F0A42CCD35F0FCEB8EF0A4FEA9F0EB8F94
:1000A000F0A4CFC5F02ECD39FEE43CFCEAA42DCE61
:1000B00035F0FDE43CFC2275F008758200EF2FFF5F
:1000C000EE33FECD33CDCC33CCC58233C5829BED30
:1000D0009AEC99E58298400CF582EE9BFEED9AFD34
:1000E000EC99FC0FD5F0D6E4CEFBE4CDFAE4CCF9E4
:1000F000A88222B800C1B90059BA002DEC8BF08457
:10010000CFCECDFCE5F0CBF97818EF2FFFEE33FE24
:10011000ED33FDEC33FCEB33FB10D703994004EBDC
:1001200099FB0FD8E5E4F9FA227818EF2FFFEE33A8
:10013000FEED33FDEC33FCC933C910D7059BE99ABA
:100140004007EC9BFCE99AF90FD8E0E4C9FAE4CC4B
:10015000FB2275F010EF2FFFEE33FEED33FDCC33B5
:10016000CCC833C810D7079BEC9AE899400AED9B9E
:10017000FDEC9AFCE899F80FD5F0DAE4CDFBE4CC7D
:10018000FAE4C8F922EF4BFFEE4AFEED49FDEC48D8
:10019000FC22EB9FF5F0EA9E42F0E99D42F0E89CDC
:1001A00045F022E8600FECC313FCED13FDEE13FEE7
:1001B000EF13FFD8F122E8600FEFC333FFEE33FEF9
:1001C000ED33FDEC33FCD8F122E0FCA3E0FDA3E02D
:1001D000FEA3E0FF22E0F8A3E0F9A3E0FAA3E0FB2E
:1001E00022ECF0A3EDF0A3EEF0A3EFF022E0FBA3EE
:1001F000E0FAA3E0F922EBF0A3EAF0A3E9F022E4AD
:1002000093FB740193FA740293F922D083D082F89D
:10021000E4937012740193700DA3A393F874019387
:10022000F5828883E4737402936860EFA3A3A380CC
:10023000DFE50C2582F582E50B3583F583B50B04EC
:1002400085820C2210AF0685820CF50B2285820C6C
:10025000F50BD2AF22EC8EF0A4CCC5F0CCCDF8EFEC
:10026000A4CEC5F02DFDE43CFCE8A42EC8C5F03DAD
:10027000FDE43CFCEFA4FFE5F028FEE43DFDE43C9A
:10028000FC227B007A4679E8120E1FEF4405FD7BC5
:10029000007A4679E8120E2B750A00E50AC3940924
:1002A000503AAF0AEF75F005A42464F582E4340EE9
:1002B000F583AF82AE838E088F09AE08AF098F82B7
:1002C0008E831201FFAE08AF098F828E8374039371
:1002D000FC740493FD120D3C050A80BF7B087A0074
:1002E0007900120C757B017A507903120E1FEF44CE
:1002F00002FD7B017A507903120E2B7B017A507933
:1003000013120E1FEF4402FD7B017A507913120E77
:100310002B9043A0E0FFEF4440FF9043A0EFF0900C
:1003200043C2E0FFEF4410FF9043C2EFF07B087A36
:100330000079A4C003C002C0017B007A5179029009
:1003400000481201F6D001D002D0037F087E0012CF
:100350000C147B087A0079ACC003C002C0017B009A
:100360007A5179229000481201F6D001D002D003D0
:100370007F087E00120C147B087A0079B4C003C099
:1003800002C0017B007A5179329000481201F6D008
:1003900001D002D0037F087E00120C149044F47444
:1003A00001F0904322E0FFEF4408FF904322EFF07A
:1003B0009046ECE0FFEFC394055006904689743AEE
:1003C000F090480074F1F012057990480074B1F093
:1003D000120BDE7B007A4379A0C003C002C0017B10
:1003E000007A4379B09000481201F6D001D002D0D3
:1003F000037F0E7E00120C149043B0E0FFEF54FD1B
:10040000FFEFF0227F947E017D007C0090006F1250
:1004100001E1905120E0FFEF5480FFEFF090512276
:10042000E0FFEF54F0FF90006EEFF090006EE0FF01
:10043000EF440FFF905122EFF0905123E0FFEF5473
:10044000F0FF90006EEFF090006EE0FF905123EF10
:10045000F0905124E0FFEF54F0FF90006EEFF09029
:10046000006EE0FF905124EFF0905120E0FFEF5438
:10047000DFFFEFF0905120E0FFEF4440FFEFF07F0F
:10048000007E00120C48905120E0FFEF4410FFEF77
:10049000F07F017E00120C48905121E0FF90006E29
:1004A000EFF0905120E0FFEF54EFFFEFF07F007E80
:1004B00000120C4890006EE0FFEF5408FF90006EB1
:1004C000EFF0905120E0FFEF4410FFEFF07F017E4E
:1004D00000120C48905120E0FFEF54EFFFEFF09036
:1004E000006EE0FFEF70077F0A7E00120C4890005C
:1004F0006F1201C97BFF7AFF79FF78FF12005B90D2
:10050000006F1201E190006EE0FFEF601290006F4B
:100510001201C9D3EF9400EE9400400302047F90CF
:100520005120E0FFEF54BFFFEFF0905120E0FFEFCC
:100530005480FFEFF0905122E0FFEF54F0FFEFF016
:10054000905123E0FFEF54F0FF90006EEFF0900029
:100550006EE0FFEF440FFF905123EFF0905124E045
:10056000FFEF54F0FF90006EEFF090006EE0FFEFB1
:10057000440FFF905124EFF0227B007A4079807D78
:100580005F7CEA120DF79040827419F0904300747A
:1005900002F09040007408F09042007403F07B0C6D
:1005A0007A017908120E1F9046A1EFF07B007A4283
:1005B00079227D087C00120DF77B007A4279207D3C
:1005C000517C12120DF7900047E4F07F197E007DF8
:1005D000007C009000431201E19000431201C9D356
:1005E000EF9400EE9400404E900047E0FFEF64036C
:1005F0006044904225E0FFEF5401FF7E00900047E9
:10060000E0FEEE25E0FEEE4FFFEF5403FF900047C3
:10061000EFF07FE07E017D007C00120B0090004334
:100620001201C97BFF7AFF79FF78FF12005B90000F
:10063000431201E180A39000431201C9EF4E7005FF
:100640007F03120DE57B007A4079047D007C011266
:100650000DF79040047407F0904006E4F0904008D5
:100660007448F0904004E4F09040017402F090432C
:10067000A2E0FFEF4401FF9043A2EFF02275930048
:1006800078007583467582E8E04401F0009046ECFE
:10069000E0F99046FAE0FAB903225420B40012B807
:1006A000001AEA901FFFF07401901FFEF09046F6CA
:1006B000F0901FFEE06005901FFFE0FA9048007484
:1006C000C0F075810C90000078007920E4F0A3D888
:1006D000FCD9FAEA90007CF0020011750B1F750C32
:1006E000FD120282020722020B3BE493A3F8E4937B
:1006F000A34003F68001F208DFF48029E493A3F815
:100700005407240CC8C333C4540F4420C883400486
:10071000F456800146F6DFE4800B01020408102045
:100720004080900CA2E47E019360BCA3FF543F3054
:10073000E509541FFEE493A360010ECF54C025E0E9
:1007400060A840B8E493A3FAE493A3F8E493A3C8A1
:10075000C582C8CAC583CAF0A3C8C582C8CAC58332
:10076000CADFE9DEE780BE7F287E007D007C0012C4
:1007700008C77F03120A907F057E007D007C00126F
:1007800008C77F03120A907F0F7E007D007C001255
:1007900008C77F03120A907F017E007D007C001253
:1007A00008C77F02120A907F057E007D007C001240
:1007B00008C77F06120BA87F0E120BA87F2C120B06
:1007C000A87F08120BA87F01120BA87F0C120BA8A0
:1007D0007F03120BA87F057E007D007C001208C7F6
:1007E00022C0E0C0F0C083C082C085C084C08675CE
:1007F0008600C093759300C0D075D000C000C001C2
:10080000C002C003C004C005C006C0077F01120BB0
:10081000A87D007F001209EB7BFF7A0E7906120A91
:10082000427D007F011209EB7BFF7A0E790C120AE0
:1008300042D007D006D005D004D003D002D001D0DA
:1008400000D0D0D093D086D084D085D082D083D031
:10085000F0D0E032C0E0C0F0C083C082C085C08468
:10086000C086758600C093759300C0D075D000C057
:1008700000C001C002C003C004C005C006C0077F9D
:1008800001120BA87D007F001209EB7BFF7A0D7926
:1008900023120A427D007F011209EB7BFF7A0D795A
:1008A00032120A42D007D006D005D004D003D002BD
:1008B000D001D000D0D0D093D086D084D085D08243
:1008C000D083D0F0D0E03290FFFC1202311201E16F
:1008D000850B83850C821201C9D3EF9400EE9480BE
:1008E000402F90007D1201C9120B00850B83850CEF
:1008F00082C083C0821201C9EF2400FFEE3480FE63
:10090000ED34FFFDEC34FFFCD082D0831201E18096
:10091000BF9000731201C9850B83850C821201D52B
:10092000120068120B0090000412023122C0E0C0D5
:10093000F0C083C082C085C084C086758600C09325
:10094000759300C0D075D000C000C001C002C003C4
:10095000C004C005C006C0077F01120BA87D007F40
:10096000001209EB7BFF7A0E7937120A42D007D0CA
:1009700006D005D004D003D002D001D000D0D0D012
:1009800093D086D084D085D082D083D0F0D0E0328E
:1009900090006EEFF0905120E0FFEF4420FFEFF069
:1009A000905120E0FFEF54BFFFEFF07F007E001278
:1009B0000C48905120E0FFEF54F0FFEFF0905120F1
:1009C000C083C082E0FF90006EE0FEEE4410FEEFB8
:1009D0004EFFD082D083EFF07F017E00120C489052
:1009E0005120E0FFEF54EFFFEFF022900067EFF0AF
:1009F000900068EDF0900067E0FFEF12020B0A0E26
:100A0000000A1B010A28020A350300000A4190006F
:100A100068E0FFEF2480FF120BA822900068E0FF3F
:100A2000EF24C0FF120BA822900068E0FFEF24948F
:100A3000FF120BA822900068E0FFEF24D4FF120BF6
:100A4000A8229000671201F690006A7401F09000ED
:100A5000671201ED12001AFF90006BEFF090006B2F
:100A6000E0FFEF602A90006BE0FF120B72900067CE
:100A70001201ED90006AE0FFE92FF9E43AFA120062
:100A80001AFF90006BEFF090006AE004F080CE2235
:100A900090006BEFF0905120E0FFEF549FFFEFF0DC
:100AA000905120E0FFEF54F0FFEFF0905120C08311
:100AB000C082E0FF90006BE0FEEE4410FEEF4EFFC0
:100AC000D082D083EFF07F017E00120C489051203D
:100AD000E0FFEF54EFFFEFF022900043EEF0A3EFC2
:100AE000F07B027A447902900043E0FEA3E0FFAD80
:0E0AF00007AC06120DF9229044C07402F022E9
:100B0000EC4D4E700D78FCEF24E950032840FD2297
:100B100000007BF178DA0000EF28FF78FFEE38FE66
:100B2000ED38FDEC38FC50E7EF2BFFEE38FEED38EA
:100B3000FDEC38FC40F22205020304120D977D0003
:100B40007F001209EB7BFF7A0D790A120A427D00C1
:100B50007F011209EB7BFF7A0D7919120A42120DFF
:100B6000AC120DBF120DD2D2AF9044F474FDF080E0
:100B7000FE2290006CEFF012040490006CE0FFEF96
:100B8000C4540FFF90006DEFF090006DE0FF12096C
:100B90009090006CE0FFEF540FFF90006DEFF0902D
:100BA000006DE0FF12099022900069EFF01204043A
:100BB000900069E0FFEFC4540FFF90006AEFF090DF
:100BC000006AE0FF120A90900069E0FFEF540FFF07
:100BD00090006AEFF090006AE0FF120A90227B0C0E
:100BE0007A0179CF120E1F900043EFF0900043E09E
:100BF000FFEF5407FF90586EEFF0900043E0FFEFD7
:100C0000C4540FFFEF540FFF90586FEFF0905876D9
:100C10007444F022758600EF4E6027EF60010E7578
:100C20009300900048E0F595A3E0F585A3E0F584F6
:100C30008B938A838982E0A30586F0A31586DFF66D
:100C4000DEF4E4F593F59522EEFA900077E0F88F64
:100C5000F0A4FFAEF0E88AF0A42EFEE5F03400FD2B
:100C6000EF24C9FF78FFEE38FEED38FDE438FC5084
:100C700003020B0022ACEAADA08B938A838982E049
:100C8000F96017A3E0F5EAA3E0F5A0A3E060F4FAA9
:100C9000A3E0F8A3E0F2DAF8D9E98DA08CEAE4F554
:100CA00093224100870041008600440078016E369F
:100CB0000044007300005DC04100771844007D2EA1
:100CC000E000004300810000004100880000900027
:100CD00043EEF0A3EFF07B027A447904900043E006
:100CE000FEA3E0FFAD07AC06120DF922900043EE23
:100CF000F0A3EFF07B027A447900900043E0FEA37A
:100D0000E0FFAD07AC06120DF9225265616479204F
:100D1000746F20626567696E0074696D696E672E15
:100D20002E2E00526561647920746F2062656769B8
:100D30006E0074696D696E672E2E2E00EC4D601189
:100D4000ED60010C8B938A838982E4F0A3DDFCDCE7
:100D5000FA75930022900043EFF0900043E0FFEF1C
:100D6000C43354E0FF904481EFF022900043EFF051
:100D7000900043E0FFEFC43354E0FF904482EFF073
:100D800022900043EFF0900043E0FFEFC43354E0C3
:100D9000FF904480EFF022900086E0FFEF70091290
:100DA00007679000867401F0120E1322120E417E26
:100DB000097F2D120AD97F07120D55120AF7221248
:100DC0000E4F7E077FE1120CCE7F07120D6B120EC5
:100DD0004822120E5D7E087F54120CEC7F07120D24
:100DE00081120E5622900048EFF0900048E0FF90EC
:100DF0000048EFF080FE228B938A838982EDF0A376
:100E0000ECF075930022446F6E65210054696D65A6
:100E10003A20007F0C120BA89000877401F0228BFF
:100E2000938A838982E0759300FF228B938A83895A
:100E300082EDF07593002254696D696E672E2E2E37
:100E4000009044C87402F0229044C07404F02290D0
:100E500044C87404F0229044C07401F0229044C845
:100E60007401F02200511000100051400030005178
:100E7000C000100051F0001001000010000114002B
:100E800008000140000A00014C000200015000006F
:010E90002041
:00000001FF
