:10000000020BD7008F828E83E0540100000070F84D
:100010002278FFE4F6D8FD020C35E5152433F5828D
:10002000E43400F583E0051522900030300703909A
:100030000033E475F00112061402037F2000E97F0B
:100040002ED2008018EF540F2490D43440D4FF30C7
:10005000040BEF24BFB41A0050032461FFE51660BF
:100060000215160519E5197002051830070E9000E3
:1000700030E475F001120614EF02039802136E7457
:1000800003D2078003E4C207F51590003012055B28
:10009000E4F516F518F519E51660077F2012005DE6
:1000A00080F57517FFC201C200C202C203C205C2B9
:1000B00006C208120029FF700D3007057F001200EC
:1000C0006EAF19AE1822B4255FC2D5C20412002942
:1000D000FF24D0B40A00501A75F00A781630D505FE
:1000E00008B6FF0106C6A426F620D5047002D20386
:1000F00080D924CFB41A00EF5004C2E5D204020222
:100100006FD20180C6D20080C0D20280BCD2D5801E
:10011000BAD20580B47F2012005D2002077401B5B9
:10012000160040F112001AFF12005D020097D2087B
:10013000D206809512001AFB12001AFA12001AF960
:100140004A4B700679407A037BFF20022EE5166049
:100150002A7E008E827583001205E760060EEE652A
:100160001770F0C2D5EBC0E0EAC0E0E9C0E0EE12E3
:1001700002B6D0E0F9D0E0FAD0E0FB12037FFF60D6
:10018000AAEBC0E0EAC0E0E9C0E012005DD0E024E4
:1001900001F9D0E03400FAD0E0FBE5170460DCD5CB
:1001A00017D980877BFF7A0279B2D202809C7910BE
:1001B00080027908C206C2088008D2D5790A800474
:1001C000790AC2D5E517047002F517E4FAFDFEFFBF
:1001D00012001AFC7B0820011312001AFD7B10305C
:1001E000000A12001AFE12001AFF7B20EC3382D59F
:1001F00092D55013C3E43000069FFFE49EFEE42036
:1002000001039DFDE49CFCE4CBF8C201EC700CCF33
:10021000CECDCCE824F8F870F38017C3EF33FFEEAF
:1002200033FEED33FDEC33FCEB33FB994002FB0F67
:10023000D8E9EB300105F8D0E0C448B201C0E00ACB
:10024000EC4D4E4F78207B0070C2EAB5170040BCE1
:10025000C0E01202B8D0F0D0E0200104C4C0E0C475
:10026000B201C0F0120046D0F0D5F0EB02009712B8
:10027000057001345301AE5801054C01014201B231
:100280004F01BA4401BA49011A4301C05501A446BD
:1002900001A44501A44703605001092D010D2E0161
:1002A000302B011123012E2003492A00C9480000E8
:1002B00001283F3F3F00790AA2D5200314300509E9
:1002C000B910020404B9080104A2D52006025001A5
:1002D000042002689202B516005034C0E07F20303E
:1002E00003197F30A20272067205500F12030FC26B
:1002F00002C206C205C2087F30800F300503E9C084
:10030000E012005D300503D0E0F9D0E0B516CC3046
:1003100005177F30B9100C12005D7F583004077F3D
:10032000788003B9080312005D3002057F2D0200BA
:100330005D7F202008F87F2B2006F322920280CFD9
:10034000286E756C6C2900D20112001A3001F8C2B7
:1003500001781630D50108F60200C92D50434958DE
:1003600012001A2403B405004001E490035B9312C9
:10037000004E743A12004ED2037516040201AEBB51
:10038000010689828A83E0225002E722BBFE02E353
:100390002289828A83E49322BB010689828A83F0C0
:1003A000225002F722BBFE01F322C5F0F8A3E02899
:1003B000F0C5F0F8E582158270021583E038F0226E
:1003C000EF2BFFEE3AFEED39FDEC38FC22E88FF022
:1003D000A4CC8BF0A42CFCE98EF0A42CFC8AF0EDCC
:1003E000A42CFCEA8EF0A4CDA8F08BF0A42DCC3880
:1003F00025F0FDE98FF0A42CCD35F0FCEB8EF0A4B8
:10040000FEA9F0EB8FF0A4CFC5F02ECD39FEE43C71
:10041000FCEAA42DCE35F0FDE43CFC2275F0087515
:100420008200EF2FFFEE33FECD33CDCC33CCC5822F
:1004300033C5829BED9AEC99E58298400CF582EEEB
:100440009BFEED9AFDEC99FC0FD5F0D6E4CEFBE4D3
:10045000CDFAE4CCF9A88222B800C1B90059BA009B
:100460002DEC8BF084CFCECDFCE5F0CBF97818EFF6
:100470002FFFEE33FEED33FDEC33FCEB33FB10D7F7
:1004800003994004EB99FB0FD8E5E4F9FA227818B8
:10049000EF2FFFEE33FEED33FDEC33FCC933C91013
:1004A000D7059BE99A4007EC9BFCE99AF90FD8E045
:1004B000E4C9FAE4CCFB2275F010EF2FFFEE33FE17
:1004C000ED33FDCC33CCC833C810D7079BEC9AE88A
:1004D00099400AED9BFDEC9AFCE899F80FD5F0DA0B
:1004E000E4CDFBE4CCFAE4C8F922EF4BFFEE4AFE80
:1004F000ED49FDEC48FC22EB9FF5F0EA9E42F0E965
:100500009D42F0E89C45F022E8600FECC313FCED3F
:1005100013FDEE13FEEF13FFD8F122E8600FEFC3D7
:1005200033FFEE33FEED33FDEC33FCD8F122E0FC7B
:10053000A3E0FDA3E0FEA3E0FF22E0F8A3E0F9A31F
:10054000E0FAA3E0FB22ECF0A3EDF0A3EEF0A3EFC2
:10055000F022E0FBA3E0FAA3E0F922EBF0A3EAF03B
:10056000A3E9F022E493FB740193FA740293F92255
:10057000D083D082F8E4937012740193700DA3A31A
:1005800093F8740193F5828883E47374029368602E
:10059000EFA3A3A380DFE51B2582F582E51A35834F
:1005A000F583B51A0485821B2210AF0685821BF5E0
:1005B0001A2285821BF51AD2AF22EC8EF0A4CCC58C
:1005C000F0CCCDF8EFA4CEC5F02DFDE43CFCE8A4C2
:1005D0002EC8C5F03DFDE43CFCEFA4FFE5F028FE8D
:1005E000E43DFDE43CFC22BB010CE58229F582E5FB
:1005F000833AF583E0225006E92582F8E622BBFE25
:1006000006E92582F8E222E58229F582E5833AF5BA
:1006100083E49322F8E0FBA3A3E0F925F0F0E58260
:10062000158270021583E0FA38F0227B007A467951
:10063000E8121774EF4405FD7B007A4679E812173B
:1006400080751400E514C3940B503AAF14EF75F0A5
:1006500005A4241CF582E43418F583AF82AE838EA2
:10066000088F09AE08AF098F828E83120564AE0829
:10067000AF098F828E83740393FC740493FD12146C
:100680006D051480BF751400E514C394015078AF54
:1006900014EF75F008A42453F582E43418F583AF01
:1006A00082AE838E0A8F0BAE0AAF0B8F828E8312BF
:1006B00005648B0C8A0D890EAE0AAF0B8F828E8378
:1006C000A3A3A31205648B0F8A108911AE0AAF0B86
:1006D0008F828E83740693F512740793F513AB0F14
:1006E000AA10A911C003C002C001AB0CAA0DA90E2B
:1006F00090000512055BD001D002D003AF13AE12FB
:100700001212DD051480817B087A007900121341F2
:100710007B017A507903121774EF4402FD7B017A52
:100720005079031217807B017A507913121774EFF6
:100730004402FD7B017A5079131217809043A0E0A8
:10074000FFEF4440FF9043A0EFF09043C2E0FFEF83
:100750004410FF9043C2EFF07B087A047920C00375
:10076000C002C0017B007A51790290000512055B3E
:10077000D001D002D0037F087E001212DD7B087A00
:10078000047928C003C002C0017B007A517922900D
:10079000000512055BD001D002D0037F087E001255
:1007A00012DD7B087A047930C003C002C0017B00EF
:1007B0007A51793290000512055BD001D002D00346
:1007C0007F087E001212DD7B017A0A795B7DC412FC
:1007D00017807B017A0C795B7DC41217807B017ACC
:1007E0000C79DB7DC41217807B017A0E79DB7DC426
:1007F0001217809044F47401F0904322E0FFEF441C
:1008000008FF904322EFF09046ECE0FFEFC3940521
:100810005006904689743AF090480074F1F012093D
:10082000D090480074B1F01212A77B007A4379A0EF
:10083000C003C002C0017B007A4379B0900005126A
:10084000055BD001D002D0037F0E7E001212DD9036
:1008500043B0E0FFEF54FDFFEFF0227F947E017D77
:10086000007C00900060120546905120E0FFEF549C
:1008700080FFEFF0905122E0FFEF54F0FF90005F17
:10088000EFF090005FE0FFEF440FFF905122EFF098
:10089000905123E0FFEF54F0FF90005FEFF09000E5
:1008A0005FE0FF905123EFF0905124E0FFEF54F010
:1008B000FF90005FEFF090005FE0FF905124EFF0B9
:1008C000905120E0FFEF54DFFFEFF0905120E0FF68
:1008D000EF4440FFEFF07F007E0012131490512090
:1008E000E0FFEF4410FFEFF07F017E001213149041
:1008F0005121E0FF90005FEFF0905120E0FFEF54B6
:10090000EFFFEFF07F007E0012131490005FE0FF16
:10091000EF5408FF90005FEFF0905120E0FFEF44AC
:1009200010FFEFF07F017E00121314905120E0FFC2
:10093000EF54EFFFEFF090005FE0FFEF70077F0AEA
:100940007E0012131490006012052E7BFF7AFF794F
:10095000FF78FF1203C090006012054690005FE030
:10096000FFEF601290006012052ED3EF9400EE941A
:100970000040030208D6905120E0FFEF54BFFFEF84
:10098000F0905120E0FFEF5480FFEFF0905122E013
:10099000FFEF54F0FFEFF0905123E0FFEF54F0FF32
:1009A00090005FEFF090005FE0FFEF440FFF905189
:1009B00023EFF0905124E0FFEF54F0FF90005FEF41
:1009C000F090005FE0FFEF440FFF905124EFF02222
:1009D0007B007A4079807DBF7C5D12171990408240
:1009E0007418F07B007A4079847D5F7CEA121719D5
:1009F0009040867419F09043007402F090400074A7
:100A000008F09042007403F07B0C7A017908121709
:100A1000749046A1EFF07B007A4279227D087C0039
:100A20001217197B007A4279207D517C1212171916
:100A3000900004E4F07F197E007D007C00900000AF
:100A400012054690000012052ED3EF9400EE94009C
:100A5000404E900004E0FFEF64036044904225E0C4
:100A6000FFEF5401FF7E00900004E0FEEE25E0FE63
:100A7000EE4FFFEF5403FF900004EFF07FE07E01A4
:100A80007D007C0012120090000012052E7BFF7A80
:100A9000FF79FF78FF1203C090000012054680A383
:100AA00090000012052EEF4E70057F031215F77BA4
:100AB000007A4079047D007C01121719904004747B
:100AC00007F0904006E4F09040087448F09040042D
:100AD000E4F09040017402F09043A2E0FFEF440381
:100AE000FF9043A2EFF022C0E0C0F0C083C082C0FC
:100AF00085C084C086758600C093759300C0D0758C
:100B0000D000C000C001C002C003C004C005C006C0
:100B1000C0071217A290002CEFF012178C90002D36
:100B2000EFF012179790002EEFF01217AD90002FF4
:100B3000EFF07B017A007918C003C002C0017BFF8F
:100B40007A14798690003312055B90002FE0FF7EC7
:100B500000900036EEF0A3EFF090002EE0FF7E0054
:100B6000900038EEF0A3EFF090002DE0FF7E0090B3
:100B7000003AEEF0A3EFF090002CE0FF7E00900032
:100B80003CEEF0A3EFF0D001D002D00312007F7F43
:100B9000011211807D007F00120FD07BFF7A147943
:100BA000921210277D007F01120FD07B017A00790D
:100BB00018121027D007D006D005D004D003D002D9
:100BC000D001D000D0D0D093D086D084D085D08230
:100BD000D083D0F0D0E032759300780075834675ED
:100BE00082E8E04401F0009046ECE0F99046FAE03B
:100BF000FAB903225420B40012B8001AEA901FFF79
:100C0000F07401901FFEF09046F6F0901FFEE06039
:100C100005901FFFE0FA90480074C0F075812190A4
:100C2000000078007920E4F0A3D8FCD9FAEA90001B
:100C3000B0F0020011751A1F751BFD12062B020C75
:100C40007C021075E493A3F8E493A34003F68001BB
:100C5000F208DFF48029E493A3F85407240CC8C3F6
:100C600033C4540F4420C8834004F456800146F630
:100C7000DFE4800B010204081020408090110AE498
:100C80007E019360BCA3FF543F30E509541FFEE48E
:100C900093A360010ECF54C025E060A840B8E49350
:100CA000A3FAE493A3F8E493A3C8C582C8CAC58392
:100CB000CAF0A3C8C582C8CAC583CADFE9DEE78017
:100CC000BE904F00E0FFEF5401FFEFF0904F02E0C5
:100CD000FFEF54FCFFEFF0904F02E0FFEF54F3FF03
:100CE000EFF0904F02E0FFEF440CFFEFF0904F0267
:100CF000E0FFEF547FFFEFF0904F02E0FFEF448002
:100D0000FFEFF0904F02E0FFEF4400FFEFF0904F55
:100D10000BE0FFEF54CFFFEFF0904F0BE0FFEF44FD
:100D200030FFEFF0904F0BE0FFEF54F0FFEFF0904B
:100D30004F0BE0FFEF440FFFEFF0904F01E0FFEFAC
:100D40004401FFEFF07F631213957F6312149E7FBF
:100D500000121609227F287E007D007C00120EAC56
:100D60007F031210C17F057E007D007C00120EAC57
:100D70007F031210C17F0F7E007D007C00120EAC3D
:100D80007F031210C17F017E007D007C00120EAC3B
:100D90007F021210C17F057E007D007C00120EAC28
:100DA0007F061211807F0E1211807F2C1211807F1E
:100DB000081211807F011211807F0C1211807F03B5
:100DC0001211807F057E007D007C00120EAC22C0D7
:100DD000E0C0F0C083C082C085C084C08675860034
:100DE000C093759300C0D075D000C000C001C00290
:100DF000C003C004C005C006C0077F011211807D7A
:100E0000007F00120FD07BFF7A1479541210277DD7
:100E1000007F01120FD07BFF7A147963121027D064
:100E200007D006D005D004D003D002D001D000D026
:100E3000D0D093D086D084D085D082D083D0F0D04B
:100E4000E03290647FE0FFEF54F8FF900000EFF095
:100E5000900000E0FFEF4405FF90647FEFF09064A6
:100E60007FE0FFEF54FCFF900000EFF0900000E007
:100E7000FF90647FEFF01217427F0A1216B97F00CD
:100E80001216A97F001216991218047F0A1216C9A9
:100E90001215BC900001EFF090649FE0FFEF44104A
:100EA000FFEFF0900001E0FF1214B62290FFFC1259
:100EB0000596120546851A83851B8212052ED3EFEF
:100EC0009400EE9480402F9000B112052E12120073
:100ED000851A83851B82C083C08212052EEF2400F1
:100EE000FFEE3480FEED34FFFDEC34FFFCD082D009
:100EF0008312054680BF9000A712052E851A8385B0
:100F00001B8212053A1203CD121200900004120542
:100F10009622C0E0C0F0C083C082C085C084C08675
:100F2000758600C093759300C0D075D000C000C016
:100F300001C002C003C004C005C006C0077F011283
:100F400011807D007F00120FD07BFF7A1779B812D5
:100F50001027D007D006D005D004D003D002D0018E
:100F6000D000D0D0D093D086D084D085D082D0830A
:100F7000D0F0D0E03290005FEFF0905120E0FFEF32
:100F80004420FFEFF0905120E0FFEF54BFFFEFF05F
:100F90007F007E00121314905120E0FFEF54F0FF09
:100FA000EFF0905120C083C082E0FF90005FE0FE30
:100FB000EE4410FEEF4EFFD082D083EFF07F017E33
:100FC00000121314905120E0FFEF54EFFFEFF022D6
:100FD000900058EFF0900059EDF0900058E0FFEFCE
:100FE0001205700FF300100001100D02101A03001B
:100FF000001026900059E0FFEF2480FF121180229C
:10100000900059E0FFEF24C0FF1211802290005998
:10101000E0FFEF2494FF12118022900059E0FFEFCF
:1010200024D4FF1211802290005812055B90005BBF
:101030007401F090005812055212037FFF90005C7B
:10104000EFF090005CE0FFEF602A90005CE0FF12A0
:10105000114A90005812055290005BE0FFE92FF909
:10106000E43AFA12037FFF90005CEFF090005BE03F
:1010700004F080CE221214CE1214E512153E7D002B
:101080007F00120FD07BFF7A1479371210277D0072
:101090007F01120FD07BFF7A1479481210271215A6
:1010A0005312159212156812157D1215A71211EC24
:1010B0001215D11215E4D2AF9044F474FDF080FE05
:1010C0002290005CEFF0905120E0FFEF549FFFEF83
:1010D000F0905120E0FFEF54F0FFEFF0905120C06E
:1010E00083C082E0FF90005CE0FEEE4410FEEF4E15
:1010F000FFD082D083EFF07F017E00121314905155
:1011000020E0FFEF54EFFFEFF0224100BB00410071
:10111000BA004100BC004100BD004100BE004100DA
:10112000BF004100C0004400AC016E36004400A77F
:1011300000005DC04100AB184400B12EE000004348
:1011400000B50000004100C1000090005DEFF0120A
:10115000085B90005DE0FFEFC4540FFF90005EEF6E
:10116000F090005EE0FF120F7590005DE0FFEF541D
:101170000FFF90005EEFF090005EE0FF120F75220F
:1011800090005AEFF012085B90005AE0FFEFC45451
:101190000FFF90005BEFF090005BE0FF1210C1903A
:1011A000005AE0FFEF540FFF90005BEFF090005B00
:1011B000E0FF1210C1221217287F3C1216397F005F
:1011C0001216297F001216191217EC7F3C121649CD
:1011D0001215BC900000EFF090649CE0FFEF44100B
:1011E000FFEFF0900000E0FF1214B6221217C97E44
:1011F0000F7F121213DD7F071214FC1217C2222276
:10120000EC4D4E700D78FCEF24E950032840FD2290
:1012100000007BF178DA0000EF28FF78FFEE38FE5F
:10122000ED38FDEC38FC50E7EF2BFFEE38FEED38E3
:10123000FDEC38FC40F222050203041217357F3C16
:101240001216797F001216697F001216591217F8CC
:101250007F3C1216891215BC900000EFF090649A42
:10126000E0FFEF4410FFEFF0900000E0FF1214B633
:101270002212174F7FFF1216F97F001216E97F0026
:101280001216D91218107FFF1217091215BC900000
:1012900000EFF090649DE0FFEF4410FFEFF090004E
:1012A00000E0FF1214B6227B0C7A0179CF1217747A
:1012B000900000EFF0900000E0FFEF5407FF90581F
:1012C0006EEFF0900000E0FFEFC4540FFFEF540FFB
:1012D000FF90586FEFF09058767444F022758600B6
:1012E000EF4E6027EF60010E759300900005E0F56A
:1012F00095A3E0F585A3E0F5848B938A838982E04A
:10130000A30586F0A31586DFF6DEF4E4F593F595E4
:0313100022222274
:10131400EEFA9000ABE0F88FF0A4FFAEF0E88AF0AC
:10132400A42EFEE5F03400FDEF24C9FF78FFEE386B
:10133400FEED38FDE438FC500302120022ACEAADA5
:10134400A08B938A838982E0F96017A3E0F5EAA36E
:10135400E0F5A0A3E060F4FAA3E0F8A3E0F2DAF881
:10136400D9E98DA08CEAE4F59322EFB40A07740D51
:10137400121379740A309811A899B8130CC29830D2
:1013840098FDA899C298B811F63099FDC299F599BB
:1013940022900000EFF0900000E0FF7E009000013A
:1013A400EEF0A3EFF07B027A4F7904900001E0FCA9
:1013B400A3E0FD12171B229043A3E0FFEF4401FFBB
:1013C400EFF09043B3E0FFEF4401FFEFF0904F00E4
:1013D400E0FFEF4401FFEFF022900000EEF0A3EFF6
:1013E400F07B027A447902900000E0FEA3E0FFADB6
:1013F40007AC0612171B22900000EEF0A3EFF07B5F
:10140400027A447904900000E0FEA3E0FFAD07AC4B
:101414000612171B22900000EEF0A3EFF07B027A75
:10142400447900900000E0FEA3E0FFAD07AC061293
:10143400171B225365742061726D20746F207570C0
:1014440070657200706F736974696F6E2E2E2E0052
:10145400526561647920746F2073746172740074CE
:10146400696D696E672E2E2E00EC4D6011ED6001E2
:101474000C8B938A838982E4F0A3DDFCDCFA7593F8
:10148400002225643A25643A25642E256400446FBD
:101494006E65212054696D653A00900000EFF07B81
:1014A400027A4F7906900000E0FFEFFD7C001217EE
:1014B4001B22EF54016004D2AF8002C2AFEF54028A
:1014C400FF9044F4E054FD4FF0229043A2E0FFEF7C
:1014D4004402FFEFF09043B2E0FFEF4402FFEFF06D
:1014E400229043A2E0FFEF4401FFEFF09043B2E00B
:1014F400FFEF4401FFEFF022900000EFF0900000B6
:10150400E0FFEFC43354E0FF904481EFF0229000F9
:1015140000EFF0900000E0FFEFC43354E0FF90448C
:1015240082EFF022900000EFF0900000E0FFEFC4A3
:101534003354E0FF904480EFF0229000BAE0FFEFD4
:101544007009120D559000BA7401F012175C2290C4
:1015540000BCE0FFEF7009120CC19000BC7401F0F4
:101564001213BB229000BDE0FFEF70091211B69078
:1015740000BD7401F01211FF229000BEE0FFEF7075
:101584000912123B9000BE7401F012131122900054
:10159400BFE0FFEF7009120E429000BF7401F01219
:1015A4001768229000C0E0FFEF70091212719000DA
:1015B400C07401F0121312229044F4E0F84402F0D3
:1015C400E85402FF10AF012274014FFF221217D713
:1015D4007E0A7FE71213FB7F071215121217D0221F
:1015E4001217E57E0D7FCF1214197F0712152812EA
:1015F40017DE22900005EFF0900005E0FF90000553
:10160400EFF080FE22900000EFF0900000E0FF90E9
:101614004F03EFF022900001EFF0900001E0FF9003
:10162400648CEFF022900001EFF0900001E0FF9055
:10163400640CEFF022900001EFF0900001E0FF90C5
:10164400642CEFF022900001EFF0900001E0FF9095
:10165400643CEFF022900001EFF0900001E0FF9075
:10166400648AEFF022900001EFF0900001E0FF9017
:10167400640AEFF022900001EFF0900001E0FF9087
:10168400642AEFF022900001EFF0900001E0FF9057
:10169400643AEFF022900002EFF0900002E0FF9035
:1016A400648FEFF022900002EFF0900002E0FF90D0
:1016B400640FEFF022900002EFF0900002E0FF9040
:1016C400642FEFF022900002EFF0900002E0FF9010
:1016D400643FEFF022900001EFF0900001E0FF90F2
:1016E400648DEFF022900001EFF0900001E0FF9094
:1016F400640DEFF022900001EFF0900001E0FF9004
:10170400642DEFF022900001EFF0900001E0FF90D3
:10171400643DEFF0228B938A838982EDF0A3ECF091
:10172400759300221217ECEF30E6051217F280F4DD
:10173400221217F8EF30E6051217FE80F422121871
:1017440004EF30E60512180A80F422121810EF3064
:10175400E60512181680F4227F0C1211809000BB4B
:101764007401F02290647FE0FFEF4480FFEFF022E9
:101774008B938A838982E0759300FF228B938A83FB
:101784008982EDF07593002290640CE0FF90644C24
:10179400E0FF2290640AE0FF90644AE0FF22906434
:1017A4000FE0FF90644FE0FF2290640DE0FF90642F
:1017B4004DE0FF2254696D696E672E2E2E00904411
:1017C400C07402F0229044C87402F0229044C074A1
:1017D40004F0229044C87404F0229044C07401F0D0
:1017E400229044C87401F02290646CE0FF2290645B
:1017F4004CE0FF2290646AE0FF2290644AE0FF22FA
:1018040090646FE0FF2290644FE0FF2290646DE0EB
:10181400FF2290644DE0FF22004F00000C005110A5
:10182400001000514000300051C000100051F00081
:10183400100100000E80010F0001000114000800D7
:101844000140000A00014C00020001500000200188
:071854000E800803A00080D4
:00000001FF
