:1000000002067D008F828E83E0540100000070F8AC
:100010002278FFE4F6D8FD0206DBBB010689828A5E
:1000200083E0225002E722BBFE02E32289828A8318
:10003000E49322BB010689828A83F0225002F722D0
:10004000BBFE01F322C5F0F8A3E028F0C5F0F8E507
:1000500082158270021583E038F022EF2BFFEE3A12
:10006000FEED39FDEC38FC22E88FF0A4CC8BF0A437
:100070002CFCE98EF0A42CFC8AF0EDA42CFCEA8E7A
:10008000F0A4CDA8F08BF0A42DCC3825F0FDE98F9D
:10009000F0A42CCD35F0FCEB8EF0A4FEA9F0EB8F94
:1000A000F0A4CFC5F02ECD39FEE43CFCEAA42DCE61
:1000B00035F0FDE43CFC2275F008758200EF2FFF5F
:1000C000EE33FECD33CDCC33CCC58233C5829BED30
:1000D0009AEC99E58298400CF582EE9BFEED9AFD34
:1000E000EC99FC0FD5F0D6E4CEFBE4CDFAE4CCF9E4
:1000F000A88222B800C1B90059BA002DEC8BF08457
:10010000CFCECDFCE5F0CBF97818EF2FFFEE33FE24
:10011000ED33FDEC33FCEB33FB10D703994004EBDC
:1001200099FB0FD8E5E4F9FA227818EF2FFFEE33A8
:10013000FEED33FDEC33FCC933C910D7059BE99ABA
:100140004007EC9BFCE99AF90FD8E0E4C9FAE4CC4B
:10015000FB2275F010EF2FFFEE33FEED33FDCC33B5
:10016000CCC833C810D7079BEC9AE899400AED9B9E
:10017000FDEC9AFCE899F80FD5F0DAE4CDFBE4CC7D
:10018000FAE4C8F922EF4BFFEE4AFEED49FDEC48D8
:10019000FC22EB9FF5F0EA9E42F0E99D42F0E89CDC
:1001A00045F022E8600FECC313FCED13FDEE13FEE7
:1001B000EF13FFD8F122E8600FEFC333FFEE33FEF9
:1001C000ED33FDEC33FCD8F122E0FCA3E0FDA3E02D
:1001D000FEA3E0FF22E0F8A3E0F9A3E0FAA3E0FB2E
:1001E00022ECF0A3EDF0A3EEF0A3EFF022E0FBA3EE
:1001F000E0FAA3E0F922EBF0A3EAF0A3E9F022E4AD
:1002000093FB740193FA740293F922D083D082F89D
:10021000E4937012740193700DA3A393F874019387
:10022000F5828883E4737402936860EFA3A3A380CC
:10023000DFE50C2582F582E50B3583F583B50B04EC
:1002400085820C2210AF0685820CF50B2285820C6C
:10025000F50BD2AF22EC8EF0A4CCC5F0CCCDF8EFEC
:10026000A4CEC5F02DFDE43CFCE8A42EC8C5F03DAD
:10027000FDE43CFCEFA4FFE5F028FEE43DFDE43C9A
:10028000FC227B007A4679E8120D08EF4405FD7BDD
:10029000007A4679E8120D14750A00E50AC394093C
:1002A000503AAF0AEF75F005A4244AF582E4340D04
:1002B000F583AF82AE838E088F09AE08AF098F82B7
:1002C0008E831201FFAE08AF098F828E8374039371
:1002D000FC740493FD120C4F050A80BF7B087A0062
:1002E0007900120B9D7B017A507903120D08EF44BF
:1002F00002FD7B017A507903120D147B017A50794B
:1003000013120D08EF4402FD7B017A507913120D90
:10031000149043A0E0FFEF4440FF9043A0EFF09023
:1003200043C2E0FFEF4410FF9043C2EFF07B087A36
:10033000007984C003C002C0017B007A5179029029
:1003400000481201F6D001D002D0037F087E0012CF
:100350000B3B7B087A00798CC003C002C0017B0094
:100360007A5179229000481201F6D001D002D003D0
:100370007F087E00120B3B7B087A007994C003C093
:1003800002C0017B007A5179329000481201F6D008
:1003900001D002D0037F087E00120B3B9044F4741E
:1003A00001F0904322E0FFEF4408FF904322EFF07A
:1003B0009046ECE0FFEFC394055006904689743AEE
:1003C000F090480074F1F012057990480074B1F093
:1003D000120AC27B007A4379A0C003C002C0017B2D
:1003E000007A4379B09000481201F6D001D002D0D3
:1003F000037F0E7E00120B3B9043B0E0FFEF54FDF5
:10040000FFEFF0227F947E017D007C00900063125C
:1004100001E1905120E0FFEF5480FFEFF090512276
:10042000E0FFEF54F0FF900062EFF0900062E0FF19
:10043000EF440FFF905122EFF0905123E0FFEF5473
:10044000F0FF900062EFF0900062E0FF905123EF28
:10045000F0905124E0FFEF54F0FF900062EFF09035
:100460000062E0FF905124EFF0905120E0FFEF5444
:10047000DFFFEFF0905120E0FFEF4440FFEFF07F0F
:10048000007E00120B70905120E0FFEF4410FFEF50
:10049000F07F017E00120B70905121E0FF9000620E
:1004A000EFF0905120E0FFEF54EFFFEFF07F007E80
:1004B00000120B70900062E0FFEF5408FF900062A2
:1004C000EFF0905120E0FFEF4410FFEFF07F017E4E
:1004D00000120B70905120E0FFEF54EFFFEFF0900F
:1004E0000062E0FFEF70077F0A7E00120B70900041
:1004F000631201C97BFF7AFF79FF78FF12005B90DE
:1005000000631201E1900062E0FFEF60129000636F
:100510001201C9D3EF9400EE9400400302047F90CF
:100520005120E0FFEF54BFFFEFF0905120E0FFEFCC
:100530005480FFEFF0905122E0FFEF54F0FFEFF016
:10054000905123E0FFEF54F0FF900062EFF0900035
:1005500062E0FFEF440FFF905123EFF0905124E051
:10056000FFEF54F0FF900062EFF0900062E0FFEFC9
:10057000440FFF905124EFF0227B007A4079807D78
:100580005F7CEA120CE19040827419F09043007491
:1005900002F09040007408F09042007403F07B0C6D
:1005A0007A017908120D089046A1EFF07B007A429B
:1005B00079227D087C00120CE17B007A4279207D53
:1005C000517C12120CE1900047E4F07F197E007D0F
:1005D000007C009000431201E19000431201C9D356
:1005E000EF9400EE9400404E900047E0FFEF64036C
:1005F0006044904225E0FFEF5401FF7E00900047E9
:10060000E0FEEE25E0FEEE4FFFEF5403FF900047C3
:10061000EFF07FE07E017D007C00120B0090004334
:100620001201C97BFF7AFF79FF78FF12005B90000F
:10063000431201E180A39000431201C9EF4E7005FF
:100640007F03120CCF7B007A4079047D007C01127D
:100650000CE19040047407F0904006E4F0904008EC
:100660007448F0904004E4F09040017402F090432C
:10067000A2E0FFEF4401FF9043A2EFF02275930048
:1006800078007583467582E8E04401F0009046ECFE
:10069000E0F99046FAE0FAB903225420B40012B807
:1006A000001AEA901FFFF07401901FFEF09046F6CA
:1006B000F0901FFEE06005901FFFE0FA9048007484
:1006C000C0F075810C90000078007920E4F0A3D888
:1006D000FCD9FAEA900070F0020011750B1F750C3E
:1006E000FD120282020722020C32E493A3F8E49383
:1006F000A34003F68001F208DFF48029E493A3F815
:100700005407240CC8C333C4540F4420C883400486
:10071000F456800146F6DFE4800B01020408102045
:100720004080900BCAE47E019360BCA3FF543F302D
:10073000E509541FFEE493A360010ECF54C025E0E9
:1007400060A840B8E493A3FAE493A3F8E493A3C8A1
:10075000C582C8CAC583CAF0A3C8C582C8CAC58332
:10076000CADFE9DEE780BE7F287E007D007C0012C4
:1007700007E17F03120A0D7F057E007D007C0012D9
:1007800007E17F03120A0D7F0F7E007D007C0012BF
:1007900007E17F03120A0D7F017E007D007C0012BD
:1007A00007E17F02120A0D7F057E007D007C0012AA
:1007B00007E17F06120A8C7F0E120A8C7F2C120A28
:1007C0008C7F08120A8C7F01120A8C7F0C120A8C13
:1007D0007F03120A8C7F057E007D007C001207E1FA
:1007E0002290FFFC1202311201E1850B83850C82FD
:1007F0001201C9D3EF9400EE9480402F9000711243
:1008000001C9120B00850B83850C82C083C0821244
:1008100001C9EF2400FFEE3480FEED34FFFDEC341F
:10082000FFFCD082D0831201E180BF9000671201EB
:10083000C9850B83850C821201D5120068120B004A
:1008400090000412023122C0E0C0F0C083C082C018
:1008500085C084C086758600C093759300C0D0752E
:10086000D000C000C001C002C003C004C005C00663
:10087000C0077F01120A8C7D007F001209687BFF90
:100880007A0C79FC1209BFD007D006D005D004D06D
:1008900003D002D001D000D0D0D093D086D084D065
:1008A00085D082D083D0F0D0E032C0E0C0F0C083E9
:1008B000C082C085C084C086758600C093759300D1
:1008C000C0D075D000C000C001C002C003C004C0C9
:1008D00005C006C0077F01120A8C7D007F00120947
:1008E000687BFF7A0D79201209BFD007D006D005AA
:1008F000D004D003D002D001D000D0D0D093D08685
:10090000D084D085D082D083D0F0D0E03290006205
:10091000EFF0905120E0FFEF4420FFEFF0905120E6
:10092000E0FFEF54BFFFEFF07F007E00120B7090EE
:100930005120E0FFEF54F0FFEFF0905120C083C052
:1009400082E0FF900062E0FEEE4410FEEF4EFFD02A
:1009500082D083EFF07F017E00120B70905120E077
:10096000FFEF54EFFFEFF02290005BEFF090005CA0
:10097000EDF090005BE0FFEF12020B098B0009988D
:100980000109A50209B203000009BE90005CE0FF66
:10099000EF2480FF120A8C2290005CE0FFEF24C05D
:1009A000FF120A8C2290005CE0FFEF2494FF120AF1
:1009B0008C2290005CE0FFEF24D4FF120A8C22907E
:1009C000005B1201F690005E7401F090005B120172
:1009D000ED12001AFF90005FEFF090005FE0FFEF74
:1009E000602A90005FE0FF120A5690005B1201ED52
:1009F00090005EE0FFE92FF9E43AFA12001AFF9046
:100A0000005FEFF090005EE004F080CE2290005F87
:100A1000EFF0905120E0FFEF549FFFEFF090512056
:100A2000E0FFEF54F0FFEFF0905120C083C082E070
:100A3000FF90005FE0FEEE4410FEEF4EFFD082D04C
:100A400083EFF07F017E00120B70905120E0FFEFEA
:100A500054EFFFEFF022900060EFF01204049000DA
:100A600060E0FFEFC4540FFF900061EFF090006171
:100A7000E0FF12090D900060E0FFEF540FFF9000BF
:100A800061EFF0900061E0FF12090D2290005DEF30
:100A9000F012040490005DE0FFEFC4540FFF9000DB
:100AA0005EEFF090005EE0FF120A0D90005DE0FF47
:100AB000EF540FFF90005EEFF090005EE0FF120A2F
:100AC0000D227B0C7A0179CF120D08900043EFF0D4
:100AD000900043E0FFEF5407FF90586EEFF0900056
:100AE00043E0FFEFC4540FFFEF540FFF90586FEF38
:0F0AF000F09058767444F0229044C07401F022C4
:100B0000EC4D4E700D78FCEF24E950032840FD2297
:100B100000007BF178DA0000EF28FF78FFEE38FE66
:100B2000ED38FDEC38FC50E7EF2BFFEE38FEED38EA
:100B3000FDEC38FC40F22205020304758600EF4EFE
:100B40006027EF60010E759300900048E0F595A3D3
:100B5000E0F585A3E0F5848B938A838982E0A30581
:0F0B600086F0A31586DFF6DEF4E4F593F5952213
:100B7000EEFA90006BE0F88FF0A4FFAEF0E88AF098
:100B8000A42EFEE5F03400FDEF24C9FF78FFEE3817
:100B9000FEED38FDE438FC5003020B0022ACEAAD58
:100BA000A08B938A838982E0F96017A3E0F5EAA31A
:100BB000E0F5A0A3E060F4FAA3E0F8A3E0F2DAF82D
:100BC000D9E98DA08CEAE4F5932241007B00410035
:100BD0007A0044006C016E360044006700005DC07E
:100BE00041006B184400712EE000004300750000C6
:100BF0000041007C0000900043EEF0A3EFF07B0288
:100C00007A447900900043E0FEA3E0FFAD07AC0614
:100C1000120CE322900043EEF0A3EFF07B027A4443
:100C20007902900043E0FEA3E0FFAD07AC06120C92
:100C3000E322120C947BFF7A0D792B1209BF120C60
:100C4000A9120CBCD2AF9044F474FDF080FE22ECEB
:100C50004D6011ED60010C8B938A838982E4F0A3CF
:100C6000DDFCDCFA75930022900043EFF090004326
:100C7000E0FFEFC43354E0FF904480EFF022900097
:100C800043EFF0900043E0FFEFC43354E0FF9044A3
:100C900081EFF02290007AE0FFEF70091207679071
:100CA000007A7401F0120CF022120D357E087F4795
:100CB000120BF67F07120C68120AF822120D437EFF
:100CC000087FAA120C147F07120C7E120D3C229092
:100CD0000048EFF0900048E0FF900048EFF080FE01
:100CE000228B938A838982EDF0A3ECF07593002226
:100CF0007F0C120A8C90007B7401F0225374617295
:100D0000742054696D6572008B938A838982E075C3
:100D10009300FF228B938A838982EDF075930022E2
:100D200053746F702054696D657200496365205477
:100D3000696D6572009044C87401F0229044C074DB
:100D400002F0229044C87402F022005110001000FA
:100D5000514000300051C000100051F0001001005F
:100D600000100001140008000140000A00014C00BE
:070D70000200015000002009
:00000001FF
