:10000000020520008F828E83E0540100000070F80A
:100010002278FFE4F6D8FD02057EBB010689828ABC
:1000200083E0225002E722BBFE02E32289828A8318
:10003000E49322BB010689828A83F0225002F722D0
:10004000BBFE01F322C5F0F8A3E028F0C5F0F8E507
:1000500082158270021583E038F022EF2BFFEE3A12
:10006000FEED39FDEC38FC22E88FF0A4CC8BF0A437
:100070002CFCE98EF0A42CFC8AF0EDA42CFCEA8E7A
:10008000F0A4CDA8F08BF0A42DCC3825F0FDE98F9D
:10009000F0A42CCD35F0FCEB8EF0A4FEA9F0EB8F94
:1000A000F0A4CFC5F02ECD39FEE43CFCEAA42DCE61
:1000B00035F0FDE43CFC2275F008758200EF2FFF5F
:1000C000EE33FECD33CDCC33CCC58233C5829BED30
:1000D0009AEC99E58298400CF582EE9BFEED9AFD34
:1000E000EC99FC0FD5F0D6E4CEFBE4CDFAE4CCF9E4
:1000F000A88222B800C1B90059BA002DEC8BF08457
:10010000CFCECDFCE5F0CBF97818EF2FFFEE33FE24
:10011000ED33FDEC33FCEB33FB10D703994004EBDC
:1001200099FB0FD8E5E4F9FA227818EF2FFFEE33A8
:10013000FEED33FDEC33FCC933C910D7059BE99ABA
:100140004007EC9BFCE99AF90FD8E0E4C9FAE4CC4B
:10015000FB2275F010EF2FFFEE33FEED33FDCC33B5
:10016000CCC833C810D7079BEC9AE899400AED9B9E
:10017000FDEC9AFCE899F80FD5F0DAE4CDFBE4CC7D
:10018000FAE4C8F922EF4BFFEE4AFEED49FDEC48D8
:10019000FC22EB9FF5F0EA9E42F0E99D42F0E89CDC
:1001A00045F022E8600FECC313FCED13FDEE13FEE7
:1001B000EF13FFD8F122E8600FEFC333FFEE33FEF9
:1001C000ED33FDEC33FCD8F122E0FCA3E0FDA3E02D
:1001D000FEA3E0FF22E0F8A3E0F9A3E0FAA3E0FB2E
:1001E00022ECF0A3EDF0A3EEF0A3EFF022E0FBA3EE
:1001F000E0FAA3E0F922EBF0A3EAF0A3E9F022E4AD
:1002000093FB740193FA740293F922D083D082F89D
:10021000E4937012740193700DA3A393F874019387
:10022000F5828883E4737402936860EFA3A3A380CC
:10023000DFE50C2582F582E50B3583F583B50B04EC
:1002400085820C2210AF0685820CF50B2285820C6C
:10025000F50BD2AF22EC8EF0A4CCC5F0CCCDF8EFEC
:10026000A4CEC5F02DFDE43CFCE8A42EC8C5F03DAD
:10027000FDE43CFCEFA4FFE5F028FEE43DFDE43C9A
:10028000FC227F947E017D007C009000591201E1E8
:10029000905120E0FFEF5480FFEFF0905122E0FFFB
:1002A000EF54F0FF900058EFF0900058E0FFEF445B
:1002B0000FFF905122EFF0905123E0FFEF54F0FF39
:1002C000900058EFF0900058E0FF905123EFF0902D
:1002D0005124E0FFEF54F0FF900058EFF0900058E9
:1002E000E0FF905124EFF0905120E0FFEF54DFFF4A
:1002F000EFF0905120E0FFEF4440FFEFF07F007EF1
:10030000001209DC905120E0FFEF4410FFEFF07F76
:10031000017E001209DC905121E0FF900058EFF0BF
:10032000905120E0FFEF54EFFFEFF07F007E0012CE
:1003300009DC900058E0FFEF5408FF900058EFF000
:10034000905120E0FFEF4410FFEFF07F017E00129C
:1003500009DC905120E0FFEF54EFFFEFF0900058E0
:10036000E0FFEF70077F0A7E001209DC900059124F
:1003700001C97BFF7AFF79FF78FF12005B9000597B
:100380001201E1900058E0FFEF6012900059120155
:10039000C9D3EF9400EE940040030202FD90512077
:1003A000E0FFEF54BFFFEFF0905120E0FFEF5480EB
:1003B000FFEFF0905122E0FFEF54F0FFEFF090518B
:1003C00023E0FFEF54F0FF900058EFF0900058E06A
:1003D000FFEF440FFF905123EFF0905124E0FFEF27
:1003E00054F0FF900058EFF0900058E0FFEF440FFA
:1003F000FF905124EFF0227B007A4679E8120A9FA1
:10040000EF4405FD7B007A4679E8120AAB750A00D5
:10041000E50AC39409503AAF0AEF75F005A424B772
:10042000F582E4340AF583AF82AE838E088F09AE7D
:1004300008AF098F828E831201FFAE08AF098F8249
:100440008E83740393FC740493FD120A35050A80AD
:10045000BF7B017A507903120A9FEF4402FD7B01B2
:100460007A507903120AAB7B017A507913120A9FF2
:10047000EF4402FD7B017A507913120AAB9043A03E
:10048000E0FFEF4440FF9043A0EFF09043C2E0FF55
:10049000EF4410FF9043C2EFF07B087A007900C070
:1004A00003C002C0017B007A5179229000561201EC
:1004B000F6D001D002D0037F087E001209A7904336
:1004C00022E0FFEF4408FF904322EFF09046ECE07B
:1004D000FFEFC394055006904689743AF0904800A7
:1004E00074F1F012060A90480074B1F01209717BA1
:1004F000007A4379A0C003C002C0017B007A43792F
:10050000B09000561201F6D001D002D0037F0E7ECB
:10051000001209A79043B0E0FFEF54FDFFEFF02277
:1005200075930078007583467582E8E04401F00019
:100530009046ECE0F99046FAE0FAB903225420B470
:100540000012B8001AEA901FFFF07401901FFEF02D
:100550009046F6F0901FFEE06005901FFFE0FA90D5
:10056000480074C0F075810C90000078007920E498
:10057000F0A3D8FCD9FAEA90004CF0020011750BF8
:100580001F750CFD1203F70205C5020A75E493A35B
:10059000F8E493A34003F68001F208DFF48029E435
:1005A00093A3F85407240CC8C333C4540F4420C881
:1005B000834004F456800146F6DFE4800B01020418
:1005C0000810204080900A09E47E019360BCA3FFDC
:1005D000543F30E509541FFEE493A360010ECF544D
:1005E000C025E060A840B8E493A3FAE493A3F8E43C
:1005F00093A3C8C582C8CAC583CAF0A3C8C582C8A8
:10060000CAC583CADFE9DEE780BE9043007402F00A
:100610009040007408F09042007403F07B0C7A0163
:100620007908120A9F9046A1EFF07B007A42792266
:100630007D087C00120A847B007A4279207D517CFF
:1006400012120A84900055E4F07F197E007D007C30
:10065000009000511201E19000511201C9D3EF94B2
:1006600000EE9400404E900055E0FFEF64036044BC
:10067000904225E0FFEF5401FF7E00900055E0FE20
:10068000EE25E0FEEE4FFFEF5403FF900055EFF034
:100690007FE07E017D007C00120900900051120174
:1006A000C97BFF7AFF79FF78FF12005B900051123F
:1006B00001E180A39000511201C9EF4E70057F0344
:1006C000120A637B007A4079047D007C01120A845F
:1006D0009040047407F0904006E4F090400874489D
:1006E000F0904004E4F09040017402F0227F287EF4
:1006F000007D007C001207677F031208767F057E6D
:10070000007D007C001207677F031208767F0F7E52
:10071000007D007C001207677F031208767F017E50
:10072000007D007C001207677F021208767F057E3D
:10073000007D007C001207677F0612093B7F0E12C6
:10074000093B7F2C12093B7F0812093B7F011209EC
:100750003B7F0C12093B7F0312093B7F057E007D26
:10076000007C001207672290FFFC1202311201E1A7
:10077000850B83850C821201C9D3EF9400EE94801F
:10078000402F90004D1201C9120900850B83850C82
:1007900082C083C0821201C9EF2400FFEE3480FEC4
:1007A000ED34FFFDEC34FFFCD082D0831201E180F8
:1007B000BF9000431201C9850B83850C821201D5BD
:1007C00012006812090090000412023122900058B1
:1007D000EFF0905120E0FFEF4420FFEFF090512028
:1007E000E0FFEF54BFFFEFF07F007E001209DC90C6
:1007F0005120E0FFEF54F0FFEFF0905120C083C094
:1008000082E0FF900058E0FEEE4410FEEF4EFFD075
:1008100082D083EFF07F017E001209DC905120E04E
:10082000FFEF54EFFFEFF0229000511201F690001D
:10083000547401F09000511201ED12001AFF900063
:1008400055EFF0900055E0FFEF602A900055E0FF73
:100850001208BF9000511201ED900054E0FFE92F03
:10086000F9E43AFA12001AFF900055EFF0900054A4
:10087000E004F080CE22900053EFF0905120E0FF92
:10088000EF549FFFEFF0905120E0FFEF54F0FFEFA7
:10089000F0905120C083C082E0FF900053E0FEEE54
:1008A0004410FEEF4EFFD082D083EFF07F017E0038
:1008B0001209DC905120E0FFEF54EFFFEFF022909F
:1008C0000056EFF0120282900056E0FFEFC4540F82
:1008D000FF900057EFF0900057E0FF1207CD900017
:1008E00056E0FFEF540FFF900057EFF0900057E0F5
:0F08F000FF1207CD224963652054696D657200C0
:10090000EC4D4E700D78FCEF24E950032840FD2299
:1009100000007BF178DA0000EF28FF78FFEE38FE68
:10092000ED38FDEC38FC50E7EF2BFFEE38FEED38EC
:10093000FDEC38FC40F22205020304900051EFF078
:10094000120282900051E0FFEFC4540FFF9000525A
:10095000EFF0900052E0FF120876900051E0FFEFB8
:10096000540FFF900052EFF0900052E0FF12087613
:10097000227B0C7A0179CF120A9F900051EFF09000
:100980000051E0FFEF5407FF90586EEFF0900051D8
:10099000E0FFEFC4540FFFEF540FFF90586FEFF0DC
:1009A0009058767444F022758600EF4E6027EF6011
:1009B000010E759300900056E0F595A3E0F585A330
:1009C000E0F5848B938A838982E0A30586F0A315E2
:0B09D00086DFF6DEF4E4F593F59522D7
:1009DC00EEFA900047E0F88FF0A4FFAEF0E88AF052
:1009EC00A42EFEE5F03400FDEF24C9FF78FFEE38AD
:1009FC00FEED38FDE438FC5003020900224100638F
:100A0C000041006200440048016E3600440043007F
:100A1C00005DC04100471844004D2EE0000043002B
:100A2C005D0000004100640000EC4D6011ED6001C0
:100A3C000C8B938A838982E4F0A3DDFCDCFA75933A
:100A4C000022900062E0FFEF70091206ED90006248
:100A5C007401F0120A9322900056EFF0900056E0C9
:100A6C00FF900056EFF080FE22120A4E7BFF7A08B0
:100A7C0079F512082880FE228B938A838982EDF007
:100A8C00A3ECF0759300227F0C12093B9000637469
:100A9C0001F0228B938A838982E0759300FF228B6D
:100AAC00938A838982EDF075930022005100002017
:100ABC0000513000400051C000100051F0001001F6
:100ACC000000100001140008000140000A00014C55
:080ADC0000020001500000209F
:00000001FF
